:020000041A00E0
:10000000008000103D06001A7901001A7B01001AD9
:100010007D01001A7F01001A8101001A5272FF53FC
:100020000000000000000000000000008301001A32
:100030008501001A000000008701001AE915001A66
:10004000BB01001ABB01001ABB01001A000000002E
:10005000BB01001ABB01001ABB01001ABB01001A48
:10006000DD18001ABB01001ABB01001ABB01001AFF
:10007000BB01001ABB01001A8905001ABB01001A56
:10008000BB01001ABB01001ABB01001ABB01001A18
:10009000BB01001ABB01001ABB01001ABB01001A08
:1000A000B505001ABB01001ABB01001ABB01001AFA
:1000B000BB01001ABB01001ABB01001ABB01001AE8
:1000C000BB01001ABB01001ABB01001ABB01001AD8
:1000D000BB01001ABB01001ABB01001ABB01001AC8
:1000E000BB01001ABB01001ABB01001ABB01001AB8
:1000F00000000000BB01001ABB01001ABB01001A7E
:1001000000000000BB01001ABB01001ABB01001A6D
:10011000BB01001A6C2E001A00000010AC00000099
:100120006C2E001A00000810000000006C2E001A4F
:1001300000000020000000006C2E001A008000204B
:10014000000000006C2E001A00C00020000000001B
:10015000B00000106800000000000810000000005F
:1001600000000020000000000080002000000000CF
:1001700000C0002000000000FEE7FEE7FEE7FEE70B
:10018000FEE7FEE7FEE7FEE7FEE7002393420AD222
:1001900010B450F8044B41F8044B04339342F8D3A5
:1001A0005DF8044B7047704700238B4204D2002255
:1001B00040F8042B0433F8E77047FEE7FFFFFFFF2A
:1001C000FFFFFFFFFFFFFFFFFFFFFFFFFFFFFFFF3F
:1001D000FFFFFFFFFFFFFFFFFFFFFFFFFFFFFFFF2F
:1001E000FFFFFFFFFFFFFFFFFFFFFFFFFFFFFFFF1F
:1001F000FFFFFFFFFFFFFFFFFFFFFFFFFFFFFFFF0F
:10020000FFFFFFFFFFFFFFFFFFFFFFFFFFFFFFFFFE
:10021000FFFFFFFFFFFFFFFFFFFFFFFFFFFFFFFFEE
:10022000FFFFFFFFFFFFFFFFFFFFFFFFFFFFFFFFDE
:10023000FFFFFFFFFFFFFFFFFFFFFFFFFFFFFFFFCE
:10024000FFFFFFFFFFFFFFFFFFFFFFFFFFFFFFFFBE
:10025000FFFFFFFFFFFFFFFFFFFFFFFFFFFFFFFFAE
:10026000FFFFFFFFFFFFFFFFFFFFFFFFFFFFFFFF9E
:10027000FFFFFFFFFFFFFFFFFFFFFFFFFFFFFFFF8E
:10028000FFFFFFFFFFFFFFFFFFFFFFFFFFFFFFFF7E
:10029000FFFFFFFFFFFFFFFFFFFFFFFFFFFFFFFF6E
:1002A000FFFFFFFFFFFFFFFFFFFFFFFFFFFFFFFF5E
:1002B000FFFFFFFFFFFFFFFFFFFFFFFFFFFFFFFF4E
:1002C000FFFFFFFFFFFFFFFFFFFFFFFFFFFFFFFF3E
:1002D000FFFFFFFFFFFFFFFFFFFFFFFFFFFFFFFF2E
:1002E000FFFFFFFFFFFFFFFFFFFFFFFFFFFFFFFF1E
:1002F000FFFFFFFFFFFFFFFFFFFFFFFFFFFFFFFF0E
:10030000024A536843F001035360704700300C40C9
:10031000024A536823F001035360704700300C40D9
:1003200010B5164B9522C3F81C23154801F024F88C
:10033000144B0422C3F80421124BD3F8543113F0A8
:10034000040FF9D00E4C204601F01CF8636943F00D
:10035000400363610C4BA361636943F00203636173
:10036000002303221946204601F018F8074B4FF4EA
:1003700080421A60C3F8802110BD00BF00600840B1
:1003800000300C4000300540E093040000E100E044
:1003900070B582B0044615461E46019151B307EE72
:1003A000901AF8EE677AC0ED027ADFED146A86EEF5
:1003B000A77A80ED037AE57466749DF9183023748A
:1003C0009DF91C30A3740121284601F03DF901215B
:1003D00094F9110001F038F9012194F9100001F0AD
:1003E00033F9012194F9120001F02EF9FFF798FF7B
:1003F00002B070BD024801F083FCDCE70000B443AA
:10040000382B001A38B505460C4641B101290DD0EC
:10041000012190F9120001F0EDF96C7505E0012160
:1004200090F9120001F0E6F96C7538BD002190F9E1
:10043000120001F0DFF96C75F7E738B505460C4698
:1004400041B101290DD0012190F9130001F0D2F939
:10045000EC7505E0012190F9130001F0CBF9EC7582
:1004600038BD002190F9130001F0C4F9EC75F7E7ED
:1004700038B505460C4641B101290DD0012190F94E
:10048000110001F0B7F96C7605E0012190F9110037
:1004900001F0B0F96C7638BD002190F9110001F03F
:1004A000A9F96C76F7E7FFFF817501290BD04BB2F4
:1004B0002BB102290BD0084B084A9A617047064BB2
:1004C000064A9A617047044B054A9A617047024B8D
:1004D000044A9A61704700BF00300C4000CB280CE2
:1004E00040420F00E093040010B5044601EB4101C7
:1004F0008A00224B1A601A68214B1B689A420ED060
:100500001E4B1A681E4B1B689A4221D91B4B1A6856
:1005100043F238139A4205D90323037618E00023E7
:10052000037615E00123037612E000212046FFF751
:1005300084FF00212046FFF765FFFFF7E1FE0F4B28
:100540001A68104B1B68B3EB420FF8D303232376D2
:10055000237E012BE9D05AB272B1032BF8D10121CD
:100560002046FFF76AFFFFF7D3FE064B00221A6012
:10057000024B1A68024B1A6010BD00BFB400001095
:10058000B0000010B800001008B5084B1B6813F04D
:10059000040F00D108BD2A2001F095F9044A136820
:1005A00001331360014B04221A60F3E700300C4062
:1005B000B80000107047FFFF00B583B001F09CF950
:1005C0001C4C1E2301931F2300930F232022302154
:1005D0002046FFF7DDFE01212046FFF765FF0021E1
:1005E0002046FFF70FFF01212046FFF70BFF0021F8
:1005F0002046FFF722FF01212046FFF71EFF0021C2
:100600002046FFF735FF01212046FFF731FF06E0C6
:10061000FA20002101F0AAF92B2001F054F924203E
:1006200001F01DF90028F3D14FF4C8710148FFF71C
:100630005BFFEDE7E80000107047FFFF10B572B6F2
:10064000194B1A4A1A600433194A1A60002305E04C
:10065000184A4FF0FF3142F823100133072BF7D926
:1006600062B6154B07E003F10C049A6859681868E4
:10067000FFF78BFD2346114A9342F4D306E01C4654
:10068000596854F8080BFFF78FFD23460C4A934234
:10069000F5D300F02FFF01F007FBFFF7CDFFFFF7C9
:1006A0008BFF30BFFDE700BF003105400010DF10B9
:1006B000FFF7DF0180E200E01401001A5001001A88
:1006C0007801001A70477047092303604FF0FF302C
:1006D0007047582303604FF0FF307047022904D958
:1006E000092303604FF0FF30704701207047582303
:1006F00003604FF0FF30704702291FD82DE9F04109
:100700001D46174606460024AC4211D200F02FF9D0
:10071000B0F1FF3FF8D004F1010838550D2803D09F
:100720000A2801D04446EFE700F021F9404603E0F3
:10073000132333604FF0FF30BDE8F08113230360D3
:100740004FF0FF30704702290CD870B51D46164691
:100750000024AC4204D2305D00F004F90134F8E723
:10076000284670BD132303604FF0FF307047FFFF32
:10077000054B1B6823B1044B18680144196070478E
:10078000014B024A1A60F6E7BC0000101801001085
:100790000022052A19D870B40C4911F8125001EB47
:1007A00042014C780A4B05F5006653F826100120EB
:1007B000A040014343F8261003EB451300211955CF
:1007C0000132052AE8D970BC70477047742B001AB3
:1007D00000400F400023032B16D830B40B4911F80A
:1007E000132001EB43014D78094C02F5006254F8E7
:1007F00022100120A84021EA000144F82210013310
:10080000032BEBD930BC7047704700BF6C2B001A2C
:1008100000400F400023082B16D830B40B4911F8C4
:10082000132001EB43014D78094C02F5006254F8A6
:1008300022100120A84021EA000144F822100133CF
:10084000082BEBD930BC7047704700BF802B001AD3
:1008500000400F4010B582B0084C6946204600F0B9
:10086000B9F9074A6946204600F0D4F900226946E2
:10087000204600F0E8F902B010BD00BF00300E4085
:10088000801A060010B50B4C204600F0D9FD6368B5
:1008900023F004036360236823F0FF0343F007039E
:1008A00023600549204600F0ACFD636843F0020375
:1008B000636010BD00500C40A086010008B5002008
:1008C00000F0EAFD044B40F60802C3F8842C03490B
:1008D000002000F0F3FD08BD0060084040420F001A
:1008E00010B5074C204600F0B9F84FF4E13120462E
:1008F00000F0DEF80323E3600123E36510BD00BFD1
:1009000000100C40034B5B6913F0200FFAD0014B31
:100910001860704700100C40054B5B6913F0010F25
:1009200003D0034B1868C0B270474FF0FF307047D8
:1009300000100C4008B5FFF7D3FF094800F041FD57
:10094000FFF768FFFFF786FFFFF79CFFFFF7B6FF93
:10095000FFF71EFFFFF73EFF00F07CF908BD00BF68
:1009600000400F4008B5C0B2FFF7CCFF08BD08B586
:10097000FFF7D2FF08BD08B5FFF7B2FF08BDFFFFC4
:1009800000231C2B12D810B4094A02EB830112F881
:1009900023404A78488802EB4412064941F8220075
:1009A00001331C2BF0D95DF8044B7047704700BF32
:1009B0009C2B001A0060084010B5174AD2F820316D
:1009C00023F4704343F41043C2F82031D2F82431A9
:1009D00023F4704343F41043C2F8243101220F4939
:1009E000062000F007FC00244CB10B4B5A6822F0A3
:1009F0000C025A605A6842F003025A6010BD08485F
:100A000000EB840101238A78497810F8240000F073
:100A10004DFB0134E8E700BF0030044000CB280C58
:100A2000982B001A08B5FFF7ABFFFFF7C5FF08BD0D
:100A3000094B984209D003F58053984207D0A3F59B
:100A40008023984205D00020704702207047032081
:100A500070470120704700BF00100C4030B583B0D4
:100A60000446FFF7E5FF01231A4619460E4D35F8F7
:100A7000100000F061FB0723A3600023E3656360BF
:100A8000E3602362E36463652365084B9C4206D000
:100A90000323E3601023A362019B03B030BD002356
:100AA0002361A3690193F3E7182C001A0020084082
:100AB0002DE9F04F83B001908846FFF7B9FF324B24
:100AC00033F8100000F070FB06464FF0FF370124AA
:100AD0004FF0000BA246D9462AE042424B1C17E0D9
:100AE0000AB31746AB46A24699460135AC421ED919
:100AF00033093007A4FB000104FB0311621908FB52
:100B000002F2002300F04EFF02460B460028E4DB11
:100B10009742EAD3002BE8D0190CE6D1022BDFD89C
:100B2000002DDDD0E1E71746AB46A24699460134D9
:100B30001FB10F2C01D80025D8E7B9F1000F1ED046
:100B4000019A1146D36843F08003D3605FFA89F3BA
:100B50001360C9F307235360D36823F08003D36085
:100B60004FEA0A13DBB20BF00F0213438B62330917
:100B70000AFB03F3DA4409FB0AF9B3FBF9F9484627
:100B800003B0BDE8F08F00BF102C001A034B984251
:100B900001D0032070470420704700BF00400E4082
:100BA00070B50D4614461E46FFF7F0FF00F0FCFA44
:100BB00055B104FB06F404EB40006400B0FBF4F014
:100BC000C0B20138C0B270BD04EB840304EB43042F
:100BD000F1E7FFFF38B505460C46FFF7D7FF0123C5
:100BE0001A46194600F0A8FA0021E960084A226076
:100BF000217161710B232846FFF7D2FF000240F4F8
:100C000000132079400400F460201843286038BDA8
:100C1000801A060070B505460E46046824F46F2459
:100C200024F470640A600B79C3F10B03DBB24979D9
:100C3000FFF7B6FF44EA002033795B0403F4602336
:100C400003432B6070BD08B50A710A68FFF7E2FF25
:100C500008BDFFFF08B5692000F0A6FA014B186037
:100C600008BD00BF04010010F0B40B6813F0800F42
:100C700002D023F040030B60074601253AE04B69A0
:100C800003FB02F3B3FBF5F31CE01C46B0EB040CD2
:100C900027D4674506D98D60771CCF600A618C61C7
:100CA000CB6167460132B2F5807F1DDC0C6814F021
:100CB000400FE4D0731C02FA03FC4B6903FB0CF3F6
:100CC000B3FBF5F3DFF838C06345EBD9DFF834C088
:100CD000634509D814F0800FD7D1741C23FA04F4AB
:100CE000D4E7CCF1000CD4E70136032E01DC01225D
:100CF000D9E70135042D01DC0026F6E7F0BC70478A
:100D0000FF5E4C0900D01213F0B599B005460C46B1
:100D10005C22002101A800F0EBFF802300936369AF
:100D2000059323798DF8043069462846FFF79CFF28
:100D3000069BAB4227D0EB1A2ED41E46109B23F005
:100D4000400310936369159323798DF8443010A9FB
:100D50002846FFF789FF169BAB421FD0EB1A25D41C
:100D60001F462B4B9D4223D90E9BED1A33D4AE4226
:100D70003BDCBE4231DC6D460FCD0FC495E80F0061
:100D800084E80F0006E06D460FCD0FC495E80F0014
:100D900084E80F0019B0F0BD5B42CEE710AD0FCD77
:100DA0000FC495E80F0084E80F00F3E75B42D7E734
:100DB0004023089363690D9308A92846FFF754FF61
:100DC0000E9BAB42D0D108AD0FCD0FC495E80F00FC
:100DD00084E80F00DEE76D42C9E710AD0FCD0FC408
:100DE00095E80F0084E80F00D4E7AF4207DB08ADB9
:100DF0000FCD0FC495E80F0084E80F00CAE710ADCF
:100E00000FCD0FC495E80F0084E80F00C2E700BFC4
:100E100080778E0630B4054600231C2000E00133A5
:100E20001C2818D103EB430251000C4A0A441479E0
:100E3000844210D003EB43014A0008498A5AAA426F
:100E4000EDD803EB43025100044A0A445288AA42F7
:100E5000E5D32046E4E730BC704700BF2C2C001AD5
:100E600082B04FF47A7301930D4A936923F0020123
:100E700092698A4201D00A4A916123F00303094A28
:100E80001168094A914201D943F00403044A93616D
:100E9000019B5A1E0192002BFAD102B0704700BF8D
:100EA00000000540942B001AFF2C31011230054B35
:100EB00053F8200010F0010F02D1C0F30460704716
:100EC000112070470000054000F11202034B53F857
:100ED0002220034B185C00EA920070470000054096
:100EE000242C001A08B510280AD8DFE800F0440BBB
:100EF0000D18210924272A2D09093034383C4000D7
:100F000000203AE01E4838E01E4BD3F82C3103F0A5
:100F10000703042B01D01C482FE000202DE0194BC3
:100F2000D3F82C3103F00703042B27D0164824E014
:100F3000164B186821E0164B18681EE0154B186810
:100F40001BE0144B586818E000F068F815E0002129
:100F500000F09AF811E0012100F096F80DE002216E
:100F600000F092F809E0032100F08EF805E004217A
:100F700000F08AF801E04FF4004008BD0648FCE7A5
:100F8000001BB7000030044040787D01682B001A38
:100F9000942B001AC000001080F0FA0238B5054604
:100FA0000C460879FFF79EFF6061194B2B44194AE4
:100FB000934221D818B3802323600023A360E36009
:100FC000B5FBF0F32361144A954203D903FB00F00B
:100FD000A84207D021462846FFF796FEA3688BB1AA
:100FE000013BA360236983B1E2680AB1013AE26080
:100FF000013B2361002038BD4FF0FF30FBE74FF08D
:10100000FF30F8E74FF0FF30F5E74FF0FF30F2E741
:10101000103A6BFF1005940BFF5E4C0930B583B09E
:10102000174D6C6CC4F30360FFF75CFF154B1B6836
:1010300001932B6C13F0010F20D0C4F30743C4F3CA
:101040000132C4F30121C4F38015013301320DF1E3
:10105000080C614411F8041C14F0800F08D13DB94C
:101060004900B3FBF1F3B0FBF2F000FB03F003E047
:10107000B0FBF2F003FB00F003B030BD0020FBE753
:1010800000000540202C001A38B50C460846FFF732
:101090000DFF05462046FFF717FF04462846FFF7D9
:1010A00021FF0134B0FBF4F038BDFFFF30B400F194
:1010B0001604A40004F1804404F5A02464681B28ED
:1010C00013D811291AD00E4D25400AB145F40065F8
:1010D0000BB145F0010545EA01651630800000F1CD
:1010E000804000F5A020456008E044F0010416307F
:1010F000800000F1804000F5A020446030BC7047C3
:10110000FEF7FFE01B280CD81630800000F180406D
:1011100000F5A020406810F0010F04D1C0F3046076
:101120007047112070471120704708B5FFF7EAFF9C
:10113000FFF7D8FE08BDFFFF71B901210AB141F0E8
:101140000401022B0AD0B0F5A17F0AD3A0F591705B
:10115000064B43F8301070470321EFE741F02001C0
:10116000F1E72030024B43F8301070470020054073
:1011700000100540B0F5A17F09D3094AA0F5917090
:1011800052F8303043F0010342F830307047054ADE
:10119000203052F8303043F0010342F830307047CD
:1011A000002005400010054010B5B0F5A17F09D31F
:1011B000A0F591730D4A52F8334014F0010F07D196
:1011C000002010BD00F12003094A52F83340F4E733
:1011D000FFF720FEFFF7A9FF14F0E00F03D1012372
:1011E000B0FBF3F0EDE70223FAE700BF0020054073
:1011F0000010054070B58AB005460E4614464CF204
:1012000050330993062818D00023012229460420D0
:10121000FFF74CFF4A4A536C43F0010353648DF8C7
:10122000085001A93046FFF7B9FE464B9E4216D939
:10123000019B13F0400F03D0FEE7FFF711FEE3E739
:1012400013F0800F05D023F08003019300250126C1
:1012500007E0049B013304930125002601E00025EB
:101260002E469DF80820019B43EA0263059A43EA53
:101270000243039A43EA0233049A43EA022343F403
:1012800000632F4A53642E4B1B6C13F0010FFAD0EE
:101290000023012209210420FFF708FF06B34CF2C6
:1012A00050330993099B5A1E0992002BFAD1019BD6
:1012B00043F0800301939DF8082043EA0263059AF6
:1012C00043EA0243039A43EA0233049A43EA0223BD
:1012D00043F400631A4A5364002C2ED10AB070BD47
:1012E000002DF9D04CF250330993099B5A1E0992F4
:1012F000002BFAD1049B5A1E04929DF80810019B02
:1013000043EA0163059943EA0143039943EA013340
:1013100043EA022343F40063094A5364DCE70A48C2
:1013200000EB8401CB788A78497810F82400FFF725
:10133000BDFE0134112CF2D9D0E70024FAE700BF3A
:101340000000054080778E06982C001A094B9842C1
:101350000BD0A3F58053984209D0A3F57833984277
:1013600001D08420704785207047A4207047A320B7
:10137000704700BF00400C4008B5FFF7E7FFFFF7DC
:10138000F9FE08BD42680023436001238360022305
:1013900043608368002BFCD14260704770B4012425
:1013A0009C409D1C6D000326AE402643C46B24EA7E
:1013B0000604C46399400C43AA401443C46370BC40
:1013C00070477047034B984201D083207047A52097
:1013D000704700BF00500C40044B984202D040F2CE
:1013E000022070474FF4F170704700BF00500C406E
:1013F000036823F47F43090289B219430160026143
:10140000704770B506460D46FFF7E6FFFFF7CCFEC6
:1014100002224FF0FF33002100E02146AB420BD9FE
:101420004C1C02FB04F3B0FBF3F39D42F6D2FF2CFD
:10143000F3D902320021F1E73046FFF7D9FF70BD42
:1014400010B50446FFF7BEFFFFF794FE2046FFF7F6
:10145000C3FFFFF78FFE636823F004036360236814
:1014600023F0FF0343F00703236002492046FFF700
:10147000C8FF10BDA0860100012909D1C0EBC00042
:101480008200044B13441A69137DDBB2042BFBD09A
:10149000704700BF0000001070B50546064EC4003E
:1014A000221A930033449888FFF764FE641BA3005C
:1014B000F3586C229A6170BD000000102DE9F041D4
:1014C0000C460B4EC5002B1A4FEA830806EB0803A7
:1014D0009888FFF769FEB0FBF4F056F80830420830
:1014E0001A6156F808301A69801A5861BDE8F0810F
:1014F0000000001008B50B4A0B4B9A6003F50C7303
:101500001B6903F47F63202B04D0FFF78BFAFFF7EE
:1015100011FA08BD044AD2F8883043F47003C2F8C7
:101520008830F2E70000001A00ED00E0044B18607C
:10153000044A136843F0010313600120704700BFA1
:1015400038000010001000E0014BD3E900017047A3
:10155000D000001018B1044B07221A607047024BEC
:1015600000221A60704700BF10E000E038B550EA72
:1015700001042AD010F1FF3241F1FF33002B08BFE4
:10158000322A27D2144BC3E90001144B1B68A3FB7A
:10159000004503FB01554FF47A720023204629468B
:1015A00000F000FA0138B0F1807F09D20C4B58608E
:1015B0000C4AE02182F8231000229A6007221A6068
:1015C0000120FFF7C7FF012038BD0020FFF7C2FF51
:1015D0000020F9E70020F7E74000001004010010A8
:1015E00010E000E000ED00E008B5074A136851681C
:1015F000013341F1000113605160044B1B6813B1CA
:10160000034A1068984708BDD0000010D8000010A9
:10161000C800001030B40B4D00EB80002C18285689
:10162000087094F90110117094F902201A7094F95D
:101630000320029B1A7094F90420039B1A7030BC9B
:10164000704700BFE02C001A10F1020F00F0C780B5
:10165000B0F1FF3F00F0C58070B584B00C460023A8
:101660008DF80F308DF80E308DF80D308DF80C3070
:101670008DF80B300DF10B03019303AB00930DF1CB
:101680000D030DF10E020DF10F01FFF7C3FF052C45
:1016900000F2A980DFE804F009812745630353487D
:1016A000FFF78FFE012004B070BD9DF80F109DF86C
:1016B0000E309DF80D2042F0D00203EB41134C494F
:1016C00041F823209DF80C309DF90B20012000FAF1
:1016D00002F1464C03F5006354F8232022EA01028C
:1016E00044F82320DFE79DF80F109DF80E309DF899
:1016F0000D2042F0C00203EB41133D4941F8232085
:101700009DF80C309DF90B20012000FA02F1374CB6
:1017100003F5006354F8232022EA010244F8232051
:10172000C1E79DF80F109DF80E309DF80D2042F096
:10173000D80203EB41132E4941F823209DF80C30C9
:101740009DF90B20012000FA02F1284C03F50063FB
:1017500054F8232022EA010244F82320A3E79DF84D
:101760000F109DF80E309DF80D2042F0C80203EBDB
:1017700041131F4941F823209DF80C309DF90B209F
:10178000012000FA02F1194C03F5006354F82320FC
:1017900022EA010244F8232085E79DF80F109DF806
:1017A0000E309DF80D2042F0D00203EB411310499A
:1017B00041F823209DF80C409DF90B20012000FAF0
:1017C00002F10A4B04F5006553F82560314343F8F4
:1017D0002510D2B203EB44130021995463E7002093
:1017E00070470020704700205DE700BF00400F40B9
:1017F0000060084010F1020F2DD0B0F1FF3F2CD057
:1018000010B584B00C4600238DF80F308DF80E30E3
:101810008DF80D308DF80C308DF80B300DF10B0379
:10182000019303AB00930DF10D030DF10E020DF1C9
:101830000F01FFF7EFFE9DF80C309DF80B20211CE7
:1018400018BF01215B0103F1402303F57023995474
:10185000012004B010BD002070470020704710F137
:10186000020F2CD0B0F1FF3F2BD000B585B0002384
:101870008DF80F308DF80E308DF80D308DF80C305E
:101880008DF80B300DF10B03019303AB00930DF1B9
:101890000D030DF10E020DF10F01FFF7BBFE9DF9D7
:1018A0000C309DF80B205B0103F1402303F57023FE
:1018B000985C003018BF012005B05DF804FB0120E2
:1018C00070470020704710B50446FFF7C8FFB0FA14
:1018D00080F149092046FFF78DFF10BD08B5044B84
:1018E0001B681B68DB68034A1068984708BD00BF87
:1018F00008010010DC00001008B5FFF7ABF91A4B27
:101900001868FFF713FE01200021FFF72FFE0521C5
:101910000020FFF799FE00212420FFF795FE00210B
:101920002520FFF791FE00212620FFF78DFE0021E4
:101930002720FFF789FE01212820FFF785FE0121DE
:101940002920FFF781FE01212A20FFF77DFE0121DA
:101950002B20FFF779FE01212C20FFF775FE0121D6
:101960002D20FFF771FE08BD040100102DE9F8439A
:1019700080468946FFF7E8FD06460F46FFF7E4FD7F
:10198000841B61EB0705064BD3E90023404649461B
:1019900000F008F88D4208BF8442EFD3BDE8F88319
:1019A0004000001053B94AB9002908BF00281CBFE5
:1019B0004FF0FF314FF0FF3000F074B9ADF1080C7B
:1019C0006DE904CE00F006F8DDF804E0DDE902235D
:1019D00004B070472DE9F047089E04468846002B66
:1019E00040F085808A42154648D9B2FA82F24AB15F
:1019F000C2F1200701FA02F320FA07F7954047EAFF
:101A0000030894404FEA154E230CB8FBFEF71FFA6B
:101A100085FC0EFB178843EA084307FB0CF199424B
:101A200009D9EB1807F1FF3080F0E380994240F2CA
:101A3000E080023F2B445B1AA4B2B3FBFEF00EFB26
:101A4000103344EA034400FB0CFCA44509D92C19CB
:101A500000F1FF3380F0CB80A44540F2C88002380B
:101A60002C4440EA0740A4EB0C0400271EB1D440EC
:101A70000023C6E900433946BDE8F087002A53D069
:101A8000B2FA82F2002A40F0B680491B4FEA154EA6
:101A90001FFA85F80127B1FBFEFC230C0EFB1C117D
:101AA00043EA014308FB0CF1994207D9EB180CF10A
:101AB000FF3002D2994200F2EC808446591AA3B258
:101AC000B1FBFEF00EFB101443EA044408FB00F8DF
:101AD000A04507D92C1900F1FF3302D2A04500F22E
:101AE000DC801846A4EB080440EA0C40BEE78B42B9
:101AF00008D9002E78D00027C6E9000138463946BB
:101B0000BDE8F087B3FA83F77FB98B4202D38242F4
:101B100000F2BD80841A61EB030301209846002E79
:101B2000A9D0C6E90048A6E7FFDEC7F12005BB4003
:101B300022FA05FC4CEA030C01FA07F420FA05F836
:101B400021FA05F34FEA1C4E48EA0404B3FBFEF900
:101B5000210C0EFB19331FFA8CF841EA034309FBF1
:101B600008FA9A4502FA07F200FA07F10BD91CEBC2
:101B7000030309F1FF3080F088809A4540F28580A8
:101B8000A9F102096344A3EB0A03A4B2B3FBFEF07C
:101B90000EFB103344EA034400FB08F8A04508D9C3
:101BA0001CEB040400F1FF336BD2A04569D9023865
:101BB000644440EA0940A4EB0804A0FB02894C45B8
:101BC000C6464B4654D351D0002E69D0B1EB0E021D
:101BD00064EB030404FA05F522FA07F3FC401D4305
:101BE000C6E90054002746E73746304643E7184623
:101BF00037E707461FE7C2F1200320FA03F79540B5
:101C000001FA02F021FA03F34FEA154E3843010CB2
:101C1000B3FBFEF71FFA85F80EFB173341EA0341C9
:101C200007FB08F38B4204FA02F407D9691807F19D
:101C3000FF3C28D28B4226D9023F2944CB1A81B2DD
:101C4000B3FBFEF00EFB103341EA034100FB08F347
:101C50008B4207D9691800F1FF3C10D28B420ED994
:101C600002382944C91A40EA074714E74145ABD274
:101C7000B8EB020E69EB0C0201381346A4E760468C
:101C8000F0E7184695E76746D8E781467BE7384690
:101C900045E7ACF1020C2B4410E702382C4421E755
:101CA0003746E8E6704700BF70B50D4D0D4C641B1C
:101CB000A4100026A64209D10B4D0C4CFEF703FDE3
:101CC000641BA4100026A64205D170BD55F8043B44
:101CD00098470136EEE755F8043B98470136F2E79E
:101CE000602E001A602E001A602E001A642E001A50
:101CF00002440346934200D1704703F8011BF9E701
:101D00000FB40A4B13B51C6824B1A36913B920465C
:101D100000F0E8F905AB049AA1680193204600F0B1
:101D2000B7FB02B0BDE8104004B070474800001097
:101D3000F8B50E461446054618B183690BB900F094
:101D4000D1F9214B9C422BD16C68A369A360A38974
:101D50001A072FD523696BB323692068C01A6369FA
:101D6000F6B28342374604DC2146284600F026F9C5
:101D700030BBA368013BA36023685A1C22601E701D
:101D800063690130834204D0A389DB0706D50A2E9C
:101D900004D12146284600F011F988B93846F8BD2B
:101DA0000A4B9C4201D1AC68CFE7094B9C4208BF6B
:101DB000EC68CAE72146284600F00CF80028CBD092
:101DC0004FF0FF37EAE700BFE82D001A082E001A8F
:101DD000C82D001A324B70B51D6806460C4625B159
:101DE000AB6913B9284600F07DF92E4B9C420FD108
:101DF0006C68B4F90C309AB215072CD4D00611D403
:101E00000922326043F04003A3814FF0FF303EE0EF
:101E1000254B9C4201D1AC68EBE7244B9C4208BFA8
:101E2000EC68E6E7510712D5616B41B104F1440358
:101E3000994202D0304600F059FA00236363A38927
:101E400023F02403A3810023636023692360A38913
:101E500043F00803A38123694BB9A38903F42073DA
:101E6000B3F5007F03D02146304600F0FFF9A28988
:101E700012F001030CD00023A36063695B42A361ED
:101E8000236953B9B4F90C3013F08000BAD170BD96
:101E9000920758BF6369A360F2E70020F7E700BF2D
:101EA00048000010E82D001A082E001AC82D001A4C
:101EB0008A892DE9F041054610070C4658D44B6835
:101EC000002B05DC0B6C002B02DC0020BDE8F08150
:101ED000E66A002EF9D0002312F480522F682B609E
:101EE00032D0606DA3895A0705D56368C01A636B49
:101EF0000BB1236CC01A00230246E66A216A284609
:101F0000B047431CA38906D129681D2949D82A4A0C
:101F1000CA40D60745D500226260D90422692260F2
:101F200004D5421C01D12B6803B96065616B2F6039
:101F30000029CAD004F14403994202D0284600F097
:101F4000D5F900206063C1E7216A01232846B04724
:101F5000411CC7D12B68002BC4D01D2B01D0162BE0
:101F600001D12F60B1E7A38943F04003A381ADE71E
:101F70000F69002FA9D093070E6808BF4B690F6047
:101F800018BF0023A6EB07088B60B8F1000F9CDD9B
:101F900043463A46216AA66A2846B047002806DC2E
:101FA000A38943F04003A3814FF0FF308EE707443D
:101FB000A8EB0008E9E700BF0100402038B50B6935
:101FC00005460C4613B90025284638BD18B183696B
:101FD0000BB900F087F8144B9C421BD16C68B4F924
:101FE0000C30002BEFD0626ED00704D4990502D4D8
:101FF000A06D00F014F928462146FFF759FF636EE3
:10200000DA070546E0D4A3899B05DDD4A06D00F076
:1020100007F9D9E7054B9C4201D1AC68DFE7044BD7
:102020009C4208BFEC68DAE7E82D001A082E001A77
:10203000C82D001A002310B50446C0E900338360A0
:1020400081814366C281C0E9043383611946082255
:102050005C30FFF74DFE054B6362054BA362054BF9
:10206000E362054B2462236310BD00BFF529001A0B
:10207000172A001A4F2A001A732A001A014900F081
:10208000AFB800BFBD1F001A70B54A1E6825554382
:102090000E4605F1740100F077F9044640B10021C5
:1020A000C0E900160C30A06005F16802FFF720FEC1
:1020B000204670BD014800F0B2B800BF1401001006
:1020C000014800F0ADB800BF14010010014800F055
:1020D000A6B800BF0F010010014800F0A1B800BF72
:1020E0000F01001010B50446FFF7F0FFA3691BB104
:1020F000BDE81040FFF7F0BFC4E912332365134B6E
:10210000134A1B68A262A34204BF0123A3612046B5
:1021100000F020F86060204600F01CF8A060204627
:1021200000F018F80022E06004216068FFF782FFE9
:1021300001220921A068FFF77DFF02221221E06839
:10214000FFF778FF0123A361D2E700BF282E001A12
:102150007D20001AF8B50746FFF7ACFF1E4B1E683E
:10216000B36913B93046FFF7BDFF4836D6E90134ED
:10217000013B03D533680BB33668F7E7B4F90C506D
:10218000D5B9164BE36004F15800656600F046F8D7
:10219000FFF796FF2560C4E90155C4E90455A56120
:1021A0000822294604F15C00FFF7A2FDC4E90D55A1
:1021B000C4E912552046F8BD6834D9E704213846F1
:1021C000FFF762FF044630600028D5D1FFF778FFA3
:1021D0000C233B60EEE700BF282E001A0100FFFF32
:1021E0002DE9F8438046894600F14804002614B9D9
:1021F0003046BDE8F883D4E90175013F01D5246874
:10220000F5E7AB89012B07D9B5F90E30013303D0BF
:1022100029464046C84706436835EEE77047704791
:10222000704770B50E46B1F90E10002996B01446ED
:102230001D4607DA00232B60B3891A0610D44FF429
:1022400080630EE06A46FEF744FA0028F2DB019A4A
:1022500002F47042A2F500535A425A412A60EEE756
:1022600040230020236016B070BDFFFF8B8973B53B
:102270009D0706460C4607D504F1470323602361FA
:102280000123636102B070BD01AB6A46FFF7C9FF6D
:1022900000990546304600F077F848B9B4F90C309B
:1022A0009A05EFD423F0030343F00203A381E3E78D
:1022B0000D4BB362A389206043F08003A381009B90
:1022C0006361019B20615BB1B4F90E103046FEF7EB
:1022D00005FA28B1A38923F0030343F00103A38186
:1022E000A3891D43A581CDE77D20001A38B5054699
:1022F000002945D051F8043C0C1F002BB8BFE4184E
:1023000000F00EFC1F4A1368104633B96360146076
:102310002846BDE8384000F009BCA3420CD921682A
:102320006218934204BF1A685B68636004BF521866
:1023300022600460ECE713465A680AB1A242FAD957
:1023400019685818A0420BD12068014458188242DD
:102350001960DDD1106852685A6001441960D7E7EE
:1023600002D90C232B60D3E7206821188A4204BFCE
:1023700011685268626004BF091821605C60C7E799
:1023800038BD00BFE0000010F8B5CD1C25F00305F6
:1023900008350C2D38BF0C25002D064601DBA9425F
:1023A00003D90C2333600020F8BD00F0B9FB2149AC
:1023B0000A6814469CB9204F3B6823B92146304631
:1023C000FEF7D6F9386029463046FEF7D1F9431CAE
:1023D00023D10C233360304600F0A8FBE3E72368E9
:1023E0005B1B17D40B2B03D923601C44256004E02E
:1023F0006368A2420CBF0B605360304600F096FB4E
:1024000004F10B00231D20F00700C21ACCD01B1AC8
:10241000A350C9E722466468CCE7C41C24F0030437
:10242000A042E3D0211A3046FEF7A2F90130DDD1F7
:10243000CFE700BFE0000010E40000109368013B0C
:10244000002B10B4936008DA9469A34201DB0A29D7
:1024500003D15DF8044BFFF76BBC1368581C106088
:10246000197008465DF8044B7047F8B506460F46EC
:102470001446D518AC4201D1002007E03A4614F8C2
:10248000011B3046FFF7DAFF431CF3D1F8BDFFFF15
:102490002DE9F04F0D469DB014461E46074618B173
:1024A00083690BB9FFF71EFE854B9D421BD17D68EA
:1024B0006B6ED90705D4AB899A0502D4A86DFFF7D6
:1024C000AEFEAB891B0701D52B69EBB9294638460F
:1024D000FFF780FCC0B16B6ED8070ED54FF0FF3010
:1024E0001DB0BDE8F08F774B9D4201D1BD68DFE79D
:1024F000754B9D4208BFFD68DAE7AB899905EDD4BD
:10250000A86DFFF78DFEE9E70023099320238DF8DE
:102510002930DFF8B891039630238DF82A304FF038
:10252000010A23461E4613F8012B0AB1252AF9D1C8
:10253000B6EB040B0BD05B46224629463846FFF724
:1025400094FF013000F0A380099B5B44099333782A
:10255000002B00F09C8000234FF0FF32CDE90523D3
:102560000136049307938DF853301A9334460522AD
:1025700014F8011B554800F083FA049BC0B9DA0631
:1025800044BF20228DF85320180744BF2B228DF81A
:10259000532032782A2A13D0079A344600200A267C
:1025A000214611F8013B303B092B4BD970B914E09F
:1025B000A0EB09000AFA00F0184304902646D5E77C
:1025C000039A111D12680391002A01DB079204E0AF
:1025D000524243F002030792049323782E2B0CD12E
:1025E00063782A2B33D1039B1A1D1B680392002B9F
:1025F000B8BF4FF0FF3302340593354E21780322E4
:10260000304600F03DFA38B14023801B03FA00F059
:10261000049B03430134049314F8011B2D488DF8E7
:102620002810062200F02CFA00283FD02A4B13BBBA
:10263000039B073323F0070308330393099B4344A9
:1026400009936EE706FB023201200C46A8E700233F
:102650000134059319460A26204610F8012B303A1A
:10266000092A03D9002BC8D00591C6E706FB012132
:1026700001230446F0E703AB00932A46174B04A955
:102680003846AFF30080B0F1FF3F8046D6D16B6E85
:10269000D90705D4AB899A0502D4A86DFFF7C0FD10
:1026A000AB895B063FF51AAF099819E703AB0093B6
:1026B0002A460A4B04A9384600F088F8E3E700BF31
:1026C000E82D001A082E001AC82D001A2C2E001A08
:1026D000322E001A362E001A000000006B24001A59
:1026E0002DE9F04791461F468A680B69DDF8208086
:1026F0009342B8BF1346C9F8003091F8432006460C
:102700000C4612B10133C9F800302368990642BF64
:10271000D9F800300233C9F80030256815F00605F5
:1027200007D104F1190AE368D9F800209B1AAB42DB
:1027300028DC94F843302268003318BF0123920646
:102740002DD404F1430239463046C047013020D031
:102750002368E568D9F8002003F00603042B08BFBE
:10276000AD1AA36822690CBF25EAE57500259342DE
:10277000C4BF9B1AED184FF000091A344D451AD109
:10278000002008E00123524639463046C047013058
:1027900003D14FF0FF30BDE8F0870135C3E7E11802
:1027A0005A1C302081F84300224494F8451082F8E6
:1027B00043100233C5E70123224639463046C0475D
:1027C0000130E6D009F10109D8E7FFFF2DE9F04318
:1027D00006460C4601F14300097E85B06E299846F5
:1027E00017460C9B00F0BA8024D8632939D00AD848
:1027F000002900F0C380582900F0918004F14205BF
:1028000084F8421035E0642901D06929F6D12568A1
:102810001A6815F0800F02F104012CD012681960BB
:10282000002A03DA2D23524284F84330DFF8BCC17A
:102830000A233FE0732900F0A58008D86F2921D032
:102840007029DBD1226842F02002226003E0752962
:1028500018D07829D2D1782284F84520DFF890C1A9
:1028600061E01A68111D1960136884F8423004F1A0
:102870004205012393E01268196015F0400F18BF5C
:1028800012B2CDE7D4F800C01A681CF0800F02F134
:1028900004051D6001D0126803E01CF0400FFAD05F
:1028A0001288DFF848C16F290CBF08230A230021D2
:1028B00084F843106568A560002DA2BF216821F04F
:1028C000040121600AB9002D46D00546B2FBF3F1A0
:1028D00003FB112E93421CF80EE005F801ED39D9E7
:1028E000082B0BD12368DA0708D5236962689A425E
:1028F000DEBF302305F8013C05F1FF35401B2061A8
:10290000CDF800803B4603AA21463046FFF7E8FE9B
:10291000013049D14FF0FF3005B0BDE8F083DFF85A
:10292000CCC084F845101D68216855F8042B1D6043
:102930000D060BD5CD0744BF41F0200121601AB927
:10294000236823F0200323601023B0E74B0648BF21
:1029500092B2EFE70A46B9E70546C1E71A68D4F82C
:1029600000C06169151D1D601CF0800F136801D047
:10297000196003E01CF0400FFAD019800023236196
:102980000546BDE71A68111D1960156862680021C7
:10299000284600F075F808B1401B60606368236149
:1029A000002384F84330ABE723692A463946304692
:1029B000C0470130AED023689B0713D4E068039B67
:1029C0009842B8BF1846A7E701234A463946304621
:1029D000C04701309ED00135E368039A9B1AAB4291
:1029E000F2DCEBE7002504F11909F5E73D2E001AAA
:1029F0004E2E001A10B50C46B1F90E10FDF77CFEF4
:102A00000028ABBF636DA3891B1823F48053ACBFB0
:102A10006365A38110BD2DE9F0411F468B89DB055D
:102A200005460C46164605D502230022B1F90E10C4
:102A3000FDF75DFEA389B4F90E1023F48053A38142
:102A400032463B462846BDE8F041FDF77CBE10B556
:102A50000C46B1F90E10FDF74AFE431CA38915BFC1
:102A6000606523F4805343F48053A38118BFA3818E
:102A700010BDB1F90E10FDF727BEFFFFFFFFFFFFEE
:102A800001F0FF01102A2BDB10F0070F08D010F81F
:102A9000013B013A8B422DD010F0070F42B3F6D123
:102AA000F0B441EA012141EA014122F007047FF03C
:102AB00000070023F0E80256083C85EA010586EA93
:102AC000010685FA47F5A3FA87F586FA47F6A5FACF
:102AD00087F68EB9EED1F0BC01F0FF0102F00702DB
:102AE00032B110F8013B013A83EA010313B1F8D186
:102AF0000020704701387047002D06BF3546033867
:102B0000073815F0010F07D1013015F4807F02BF9F
:102B1000013015F4C03F0130F0BC0138704700BFF0
:102B20000148FFF77CBB00BF100100100148FFF710
:102B300077BB00BF10010010456C206E756D65728B
:102B40006F206465207061736F7320706F722076E0
:102B500075656C7461206E6F207075656465207397
:102B60006572206365726F000000000000040008B9
:102B700000090109050005010502000E010B010C09
:102B8000030003030304050F0510030503060307F1
:102B90000208FFFF001BB700010F01010200440003
:102BA0000201440002024400020A4000020B4000FD
:102BB000020C4000010050000101500001025000D1
:102BC00001065000060150000604500006055000A2
:102BD000060754000608540006095000060A500073
:102BE000060B5000060C50000F04F0000103D50046
:102BF0000104D50007011600070256000203520027
:102C00000204520009055200090657000602570047
:102C1000C201A2018201620181008200A100A20022
:102C200001020408030F0F0FFF0000000000050061
:102C30000A00200024000900400040000500600058
:102C4000A6000400C000C3000200E000E000010094
:102C500000010001030020012001060040014001A5
:102C60000C0042014201190062016201130082015D
:102C700082011200A201A2011100C201C2011000D2
:102C8000E201E2010F00020202020E002202220211
:102C90000D00230223021C000001010009090100AC
:102CA0000A090100010701010209010006090100EA
:102CB0000C0901010D0901000E0901000F090100B5
:102CC0001009010011090100120901001309010096
:102CD00014110100191101001A1101001B1101004A
:102CE0000401000201070500030D010500010804AD
:102CF00002000202040300020304000002000704B1
:102D000000030C030204050903010405080203047F
:102D100005030204040504060C000208060B000368
:102D2000070609000305060704050F060400030350
:102D3000040400020404050002050406000206045F
:102D40000804050C040A04050E010300000A01141E
:102D500000000F011200000D011100000C01100015
:102D60000003070700030F0001000001000000003E
:102D700000060A0003060608040510060500030401
:102D80000601000300040904050D010400000B0105
:102D90000F00000201000000040101000008010210
:102DA00000000901060001090200040500020104F7
:102DB00005010202040502020A00000E020B0001D6
:102DC0000B020C00010CFFFF0000000000000000DF
:102DD00000000000000000000000000000000000F3
:102DE00000000000000000000000000000000000E3
:102DF00000000000000000000000000000000000D3
:102E000000000000000000000000000000000000C2
:102E100000000000000000000000000000000000B2
:102E200000000000000000004C000010232D302B9B
:102E30002000686C4C0065666745464700303132BB
:102E40003334353637383941424344454600303112
:102E5000323334353637383961626364656600FF72
:042E60007709001AD4
:082E640070EBFF7F010000008C
:102E6C0000100A40220000007914001A0000000033
:102E7C0000000000000000000000000000000E40F8
:102E8C00010000007914001A00000000000000008E
:102E9C00000000000000000000CB280CFFFFFFFF2B
:102EAC0001000000000000004C00001000000000B9
:102EBC00E82D001A082E001AC82D001A0000000078
:102ECC0000000000000000000000000000000000F6
:102EDC0000000000000000000000000000000000E6
:102EEC0000000000000000000000000000000000D6
:102EFC0000000000000000000000000000000000C6
:0C2F0C00000000000000000000000000B9
:040000051A00063D9A
:00000001FF
